:020000040800F2
:10000000C00A002001010008F13F0008E93F000894
:10001000ED3F0008BD0A0008594600080000000036
:10002000000000000000000000000000C5450008BE
:10003000ED0F000800000000F53F0008C94500086A
:100040001B0100081B0100081B0100081B01000820
:100050001B0100081B0100081B0100081B01000810
:100060001B0100081B0100081B0100081B01000800
:100070001B0100081B0100081B0100081B010008F0
:100080001B0100081B0100081B0100081B010008E0
:100090001B0100081B0100081B0100081B010008D0
:1000A0001B0100081B0100081B0100081B010008C0
:1000B0001B0100081B0100081B0100081B010008B0
:1000C0001B0100081B0100081B0100081B010008A0
:1000D0001B0100081B0100081B0100081B01000890
:1000E0001B0100081B0100081B010008DFF80CD0F1
:1000F00000F0FAFB00480047A54A0008C00A0020AB
:100100000648804706480047FEE7FEE7FEE7FEE7B1
:10011000FEE7FEE7FEE7FEE7FEE7FEE7CD45000867
:10012000ED00000810B5431A934209D283188818CD
:1001300003E010F8011D03F8011D521EF9D210BD95
:1001400040EA01039B0703D009E008C9121F08C059
:10015000042AFAD203E011F8013B00F8013B521ED9
:10016000F9D210BDD2B201E000F8012B491EFBD23A
:1001700070470022F6E710B513460A4604461946B2
:10018000FFF7F0FF204610BD421C10F8011B0029AC
:10019000FBD1801A704780EA010210B502F00043DB
:1001A000400022D04A001FD0010E01EB1261C0F3C3
:1001B0005600C2F3560240F4000042F40002A0FBD5
:1001C000022000047F39140400D0401C50EA124081
:1001D00001D44000491EC2B20C0604EBD010401CF2
:1001E0004008802A02D003E0002010BD20F001006A
:1001F000002900DA0020184310BD30B480EA010263
:1002000002F0004530F0004221F0004013D090B1E0
:10021000C30DD40DC2F31601C0F31600E41A41F465
:10022000000140F400027D34914201D3641C00E0DF
:100230004900002C02DA30BC002070474FF4000067
:100240000023914201D3891A034340084FEA410138
:10025000F7D151B1914202D14FF0004105E002D2F5
:100260004FF0010101E06FF0010103EBC45028449D
:1002700030BC00F064BA2DE9FE4F804681EA0300ED
:10028000C00F0C46009021F0004123F00045B8EB70
:100290000200A94105D24046214690461C460B4625
:1002A000024623F00040104347D0270DC7F30A0051
:1002B000C3F30A510290401A019040286BDAC3F34D
:1002C000130040F4801B0098924620B10023D2EB2B
:1002D000030A63EB0B0B01985946C0F140025046EC
:1002E00000F0FCF906460D4650465946019A00F0CA
:1002F00014FA10EB08006141002487EA115284EAE5
:10030000E7731A4340D0009A62B3019A012A4FEA78
:10031000075215DC001B61EB02014FF0004202EABC
:100320000752CDE90042001C41F5801132462B46B0
:1003300000F04BFA03B0BDE8F08F40462146F9E7E4
:10034000001B61EB0201001C41F5801300185B41AA
:100350002018A2F5001747EB030140EAD570B61943
:100360006D4111E06D084FEA360645EAC0754FEA67
:100370000752001B61EB0201001C41F58011490886
:100380004FEA30000019514132462B4603B0BDE818
:10039000F04F00F00BBA0098012240000023D0EB90
:1003A000020263EBE073009821464FEAE074B8EB79
:1003B000000061EB0401E9E783F000435BE781F0B3
:1003C000004158E72DE9FE4F81EA030404F00044A0
:1003D00021F0004100944FF0000B23F0004350EA5D
:1003E00001045ED052EA03045BD0C3F30A54C1F3A4
:1003F0000A552C44A4F2F3340194A0FB0254C1F337
:10040000130141F48011C3F3130343F4801301FB80
:10041000024400FB034E840A970A44EA815447EAE7
:100420008357A4FB076802958D0A05FB07854FEAF1
:10043000932C04FB0C542705029D4FEA065847EA0B
:100440001637B5EB08056EEB070C870E920E47EAE0
:10045000811742EA8312A7FB0201B6EB0B0164EBA2
:1004600000042B0D43EA0C335E1844EB1C50DA46B3
:100470005146E7FB0201C5F313044FEA0B3343EA8D
:1004800014534FEA0432019C43EA0603A4F10C041E
:100490000294009CCDE900B400F097F903B0BDE8E8
:1004A000F08F00200146F9E72DE9F04D81EA0304C1
:1004B00004F0004B21F0004514464FF0000A23F0F1
:1004C000004150EA050220D054EA01021DD0C5F3D4
:1004D0000A570246C5F31303C1F31300C1F30A56CA
:1004E00040F4801543F48013A7EB0608101BD64692
:1004F00008F2FD3873EB050002D308F1010801E0B2
:1005000092185B41B8F1000F03DA00200146BDE804
:10051000F08D00204FF48011064684460EE0171B34
:1005200073EB050705D3121B63EB050306434CEA87
:10053000010C49084FEA300092185B4150EA01076C
:10054000EDD152EA030012D082EA040083EA0501E9
:10055000084305D0101BAB4106D20122002306E060
:1005600000224FF0004302E06FF0010253101AEB3B
:1005700006004CEB085110EB0A0041EB0B01BDE803
:10058000F04D00F013B9002801DBC0F10040002954
:1005900001DBC1F10041814201D2012070470020FE
:1005A0007047002801DBC0F10040002901DBC1F1E8
:1005B0000041814201D3012070470020704730B5CF
:1005C000041E71F1000404DB4FF00044404264EB70
:1005D0000101141E73F1000405DB1C464FF00043BB
:1005E000524263EB0403801A994101D3012030BDCC
:1005F000002030BD0EB540F2334102910021CDE91B
:1006000000110A460B4600F0E0F803B000BD00F010
:10061000004220F00040C10DC0F3160040F400007D
:100620007F2901DA00207047962903DCC1F1960189
:10063000C84001E096398840002AF4D04042704713
:1006400070B5C1F30A5201F000450024C1F3130153
:1006500040F2FF3341F480119A4201DA002070BD6C
:1006600040F233439A42A2F2334203DC524200F09A
:1006700044F800E090402C43F1D0404270BD00F0BF
:10068000004230F000400AD0C10D01F56071C0F3A6
:10069000160042EA0151C20840071143704700208A
:1006A0000146704701F0004330B421F0004150EAA8
:1006B000010206D00A0DA2F56072C1F31301002AEF
:1006C00002DC30BC00207047440F44EAC104C10082
:1006D000E01830BC00EBC25000F031B8202A04DB37
:1006E000203A00FA02F1002070479140C2F1200345
:1006F00020FA03F3194390407047202A04DB203A84
:1007000021FA02F00021704721FA02F3D040C2F131
:1007100020029140084319467047202A06DBCB1778
:10072000203A41FA02F043EAE07306E041FA02F3AC
:10073000D040C2F120029140084319467047002979
:10074000A8BF7047401C490008BF20F00100704757
:1007500010B4B0FA80FC00FA0CF050EA010404BFB7
:1007600010BC704749B1CCF1200421FA04F411FA0D
:100770000CF118BF012121430843A3EB0C01CB1D51
:100780004FEA00614FEA102042BF002010BC7047C2
:1007900000EBC35010440029A4BF10BC7047401C9C
:1007A000490008BF20F0010010BC704710B5141EAE
:1007B00073F1000408DA401C41F1000192185B411A
:1007C0001A4301D120F0010010BD2DE9F04D9246F1
:1007D0009B4611B1B1FA81F202E0B0FA80F2203208
:1007E0009046FFF77BFF04460F4640EA0A0041EAC5
:1007F0000B0153465A46084313D0114653EA0100F1
:1008000019D0C8F140025046FFF777FF05460E4663
:10081000504659464246FFF761FF084305D0012084
:1008200004E020463946BDE8F08D0020054346EA45
:10083000E0762C4337430A986305E40AA0EB0800EE
:100840000022FD0A44EA47540A3002D5002001463E
:10085000E9E7010510196941DDE908450019694119
:10086000BDE8F04DA2E770B521F0004303430CD082
:10087000C1F30A550024D5EB040564EB0403D61735
:10088000AD1AB34102DB0020014670BD201841EBD8
:10089000025170BD0EB5C10F80EAE0700844CA076E
:1008A000002140F233438DE80E000A460B46FFF765
:1008B0008CFF03B000BD000030B5041E71F10004D0
:1008C00004DB4FF00044404264EB0101141E73F15D
:1008D000000405DB1C464FF00043524263EB040367
:1008E000994208BF904230BD064C074D06E0E068D3
:1008F00040F0010394E8070098471034AC42F6D367
:10090000FFF7F8FB78860008988600082DE9F04D7F
:1009100000231A461B1A8A4103DB00200146BDE86A
:10092000F08DC1F30A52C1F3130141F480154FF069
:10093000000BD10702D100186D41521E002704465A
:1009400040F2FF11384601EB620A3E4680460246FD
:1009500000204FF48011FFF7D0FEC2197141BB187F
:1009600046EB0100B4EB030C75EB000C04D3E41A66
:1009700065EB000517460E46241908F101006D418C
:1009800080463428E3DDF91946EB0600091BA8412F
:1009900003D24FF0FF32134601E0002213461BEB57
:1009A000070046EB0A51BDE8F04DFFF7FFBE00001F
:1009B000B0B5044600688168C90709D0816821F094
:1009C0000101816001F0B8F921688968C90701D186
:1009D0000020B0BD054602E08068C007F8D001F0F5
:1009E000ABF9411B20680329F6D38168C907F3D00E
:1009F000A06A40F01000A062E06A40F00100E062EE
:100A00000120B0BDB0B582B004460020019021683D
:100A10008A68D2074FD1886840F00100886040F2B0
:100A20002800C2F2000000684DF68361C4F21B3159
:100A3000A0FB0101880C01900198A0B10198013838
:100A40000190019878B1019801380190019850B156
:100A5000019801380190019828B10198013801905E
:100A600001980028EAD101F067F921688968C9076F
:100A70001CD1054603E000BF8068C0071AD101F011
:100A80005BF9411B20680329F6D38168C907F3D1BC
:100A9000A06A40F01000A062E06A40F00100E0624D
:100AA000002084F82400012002B0B0BD002002B074
:100AB000B0BD00BF002002B0B0BD0000FEE70000E6
:100AC000B0B584B0002504460580C2600381416052
:100AD00041F21800C4F20200016841F00401016013
:100AE000016801F0040100910099016841F00801DA
:100AF0000160016801F0080100910099016841F06E
:100B000010010160016801F0100100910099016875
:100B100041F0200101600068194600F020000090BB
:100B200000981046012201F001F92089022100906D
:100B30001120CDE90105E0680391694600F0DEFF70
:100B400004B0B0BD2DE9F04F87B04FF0000841F27E
:100B500018048DF80880CDF80480C4F202042168DE
:100B6000834641F00401216021685E4601F00401E2
:100B70000391039921685F4641F0080121602168D3
:100B8000012201F0080103910399216841F010014D
:100B90002160216801F0100103910399216841F05F
:100BA00020012160216801F020000390039856F88D
:100BB0000C0F37F8081F01F0B9F838881125039099
:100BC00030684FF0020903A9CDE90458CDF8189018
:100BD00000F094FF39883068012201F0A7F82068FE
:100BE000012240F004002060206800F0040003901F
:100BF0000398206840F008002060206800F008009A
:100C000003900398206840F010002060206800F0F6
:100C1000100003900398206840F0200020602068B6
:100C200000F02000039003983068398801F07EF8C6
:100C3000388803A981E82101306803A9CDF818900C
:100C400000F05CFF39883068002201F06FF85C46E4
:100C500054F8040F142103F0BBFC398830680122DA
:100C600001F064F839883068CDE9031803A9CDE9AB
:100C7000058800F043FF2068022103F0D1FC398889
:100C8000306801F045F8002800F0B08020680221AB
:100C900003F0C6FC3988306801F03AF8002800F00B
:100CA000A5802068022103F0BBFC3988306801F080
:100CB0002FF8002800F09A802068022103F0B0FC91
:100CC0003988306801F024F8002800F08F8020680F
:100CD000022103F0A5FC3988306801F019F80028DA
:100CE00000F084802068022103F09AFC3988306883
:100CF00001F00EF8002879D02068022103F090FC62
:100D00003988306801F004F800286FD0206802218B
:100D100003F086FC3988306800F0FAFF002865D0BF
:100D20002068022103F07CFC3988306800F0F0FF75
:100D300000285BD02068022103F072FC39883068FB
:100D400000F0E6FF002851D02068022103F068FC83
:100D50003988306800F0DCFF002847D02068022185
:100D600003F05EFC3988306800F0D2FF00283DD0E7
:100D70002068022103F054FC3988306800F0C8FF75
:100D8000A0B32068022103F04BFC3988306800F0E2
:100D9000BFFF58B32068022103F042FC3988306855
:100DA00000F0B6FF10B32068022103F039FC398847
:100DB000306800F0ADFFC8B12068022103F030FCBC
:100DC0003988306800F0A4FF80B12068022103F068
:100DD00027FC3988306800F09BFF38B140F20315DA
:100DE0002846ABF8005007B0BDE8F08F398830686E
:100DF000CDE9031803A9CDE9058800F07FFE6FF067
:100E0000010500BF2068022103F00AFC3988306820
:100E100000F07EFF01280BD00235562DF2D34FF49F
:100E200082752846ABF8005007B0BDE8F08F00BFD0
:100E3000398830680022CDE9031203A9CDE90522E3
:100E400000F05CFE6FF001052068022103F0E8FB72
:100E50003988306800F05CFF50B102355A2DF3D369
:100E600040F205152846ABF8005007B0BDE8F08FFA
:100E7000002203AD4FF0000A39883068CDE9031233
:100E80002946CDE9052200F039FE4FF0000900BFE8
:100E90002068022103F0C4FB3988306800F038FF75
:100EA000012805D0B9F1380F09F10209F0D385E026
:100EB000398830684FF00008CDE903182946CDE99C
:100EC000058800F01BFE00BF2068022103F0A8FB8C
:100ED0003988306800F01CFF30B1B8F1480F08F1D4
:100EE0000208F1D372E000BF1AF00701CAF3C7008D
:100EF00002D001AD2A5C01E0002201AD002381F0A7
:100F00000701C84588BF012303FA01F111430AF123
:100F1000010ABAF1280F295403AD4FF00002ABD1FA
:100F20009DF804709DF805609DF80600F2199DF982
:100F3000074002449DF808102244D2B29142019A1F
:100F40008BF81410CBF8102048D1FFF753FB8146E3
:100F500004F07F008A46FFF74DFB40F20008C4F220
:100F60002408002243460025FFF79EFA4A465346CE
:100F7000FFF781F9FFF796FBB4F1FF3FD8BF80F090
:100F80000040CBF818003846FFF734FB07463046E0
:100F90008946FFF72FFB00224346FFF785FA3A46C2
:100FA0004B46FFF768F9FFF77DFBCBF81C0028469E
:100FB000ABF8005007B0BDE8F08F00BF4FF4837569
:100FC0002846ABF8005007B0BDE8F08F40F2071597
:100FD0002846ABF8005007B0BDE8F08F4FF481759C
:100FE0002846ABF8005007B0BDE8F08F704700000E
:100FF00070B542F20C060446C4F2020600F09CFEF4
:101000003168C90718D13068800644BF202030609D
:101010003068C00607D43069C00704D13068400783
:101020005CBF002070BD3068C00623D4002031684A
:1010300049072BD434E000BF002C47D00546601C84
:101040000ED13068C007DED03068C0071CBF3068E2
:101050005FEAC070D7D03068C007F2D1D3E700BFD5
:1010600000F06AFE401BA04230D83068C007F7D1BC
:10107000C9E700BF40F29860C2F20000C16941F0C8
:101080000201C16110203168490709D540F2986119
:10109000C2F20001CA6940F0040042F00102CA61D4
:1010A0003169C90702D13060012070BD40F29861FA
:1010B000C2F20001CA6942F00402CA61316921F03A
:1010C000010131613060012070BD00BF032070BD9F
:1010D00070B582B004460020019094F824000128E5
:1010E00004D10225284602B070BD00BF012084F85B
:1010F00024002046FFF75CFC054600286CD1A06A5E
:1011000041F2021188430230A06240F22800C2F28C
:1011100000000668022001F095FEB6FBF0F04000EA
:1011200001900198A8B100BF019801380190019881
:1011300078B1019801380190019850B101980138B7
:101140000190019828B10198013801900198002878
:10115000EAD12046FFF756FC2068816841F008017B
:10116000816000F0E9FD21688A6812070ED4886862
:1011700040F00400886000F0DFFD216889684907BD
:1011800014D401206FF0030122E000BF064602E004
:1011900088680007EBD500F0CFFD801B21680B2885
:1011A000F6D388680007F3D50EE000BF064602E0DC
:1011B00080684007E5D500F0BFFD811B20680B2942
:1011C000F6D381684907F3D5012510206FF012018D
:1011D000A26A11400843A062002084F82400284637
:1011E00002B070BD10B581B00022009290F82420AA
:1011F000012A03D10221084601B010BD4B6801222B
:10120000062B80F8242015D8026803EB8303A3F192
:10121000050E1F23D2F834C003FA0EF40B682CEA33
:10122000040C03FA0EF444EA0C045463092B17D996
:1012300037E000BF02680C2B20D803EB8303A3F137
:1012400023041F23D2F830C003FA04FE0B682CEAF3
:101250000E0C03FA04F444EA0C041463092B20D89E
:10126000D2F810C003EB4303072489689C402CEAA2
:101270000404994021431161002136E003EB83030C
:10128000A3F141041F23D2F82CC003FA04FE0B681B
:101290002CEA0E0C03FA04F444EA0C04D462092B81
:1012A000DED903EB4304D2F80CC0A4F11E0E0724D0
:1012B000896804FA0EF42CEA040401FA0EF12143C1
:1012C00023F00104102CD1600ED142F20841C4F287
:1012D0000101A1F10804A2420ED0816A41F020016F
:1012E0008162012101E000BF0021002280F824205A
:1012F000084601B010BD00BF0A68120230D40A6867
:10130000102B42F400020A602CD140F22801C2F2F4
:10131000000109684DF68362C4F21B32A1FB021280
:10132000910C01EB8101490000910099E1B1009914
:10133000013900910099C9B10099013900910099D2
:10134000B1B1009901390091009999B10099013921
:101350000091009900294FF00001E8D1C5E700BFD6
:101360000021C2E70021C0E70021BEE70021BCE761
:101370000021BAE70021B8E70068C06C70470000A0
:10138000B0B5002800F0A8800446806A20B121682A
:101390008868C0070BD114E00020E06284F82400C4
:1013A000204600F09BF821688868C00709D088684B
:1013B00020F00100886000F0BFFC21688A68D20735
:1013C00026D1A06AC0063AD4A06A41F20212904324
:1013D0000230A062E069D4E9013240EA030C531EF6
:1013E000B3FA83F35D091346B2F5807F18BF2B0271
:1013F000207D257B01284CEA450030D135B3A56A14
:1014000045F02005A562E56A45F00105E56226E0A4
:10141000054602E08868C007D3D000F08DFC401B71
:1014200021680328F6D38868C007F3D0A06A40F08B
:101430001000A062E06A40F00100E062A06AA06AC9
:1014400040F01000A0620120B0BD00BFD4F818C069
:101450004EF60005CFF6FF7505EB4C352B434D6876
:10146000B2F5807F25F4694543EA05034B608B683C
:101470004FF2FD75CFF6E17503EA050343EA000379
:101480008B6001D0012A07D122690023CFF6F073C7
:1014900003EB025201E000BF0022CB6A23F4700389
:1014A0001A43CA62896840F6FE62CFF61F72114085
:1014B000814207D10020E062A16A012262F30101AA
:1014C000A162B0BDA06A40F0100020F00200A0624E
:1014D000E06A40F00100E0620120B0BD80B586B056
:1014E000014640F60000C4F20100096800F5E05230
:1014F00091424FF00001CDE9041101D006B080BD4A
:1015000041F21801C4F202010A6842F400720A6052
:101510000A6802F400720192019A0A6842F0040219
:101520000A60096801F00401019101990121029109
:101530000321039102A900F0E1FA06B080BD00008A
:10154000F0B581B000270D460446009700F0F4FB8B
:1015500021688A68D20543D406464868C00503D48A
:10156000C86A10F4700F45D040F22800C2F20000A3
:101570000768022001F066FC216844F624130A691A
:10158000B7FBF0F0C2F292431A4206D1CA6844F6A1
:101590002413C0F292031A425ED00A6942F29243C7
:1015A000C1F249231A4207D1CA6842F29243C0F2FB
:1015B00049031A4200F0C0800A6949F24923C0F287
:1015C00024031A424FF0FC0257D1CF681F4208BFD4
:1015D0005422009B02FB00F7BB4253D3C3E000BF81
:1015E000A06A40F02000A06284F82470012001B0BD
:1015F000F0BD00BF0868800700F1B580681C00F0EE
:10160000A880FDB90868800772D50868800700F1D6
:10161000AA80086880076BD50868800700F1A3805E
:101620000868800764D50868800700F19C80086816
:1016300080075DD508688007E4D594E008688007D6
:1016400000F1918000F078FB801B2168A842F5D959
:1016500008688007F2D44BE00A6942F29243C1F273
:1016600049231A424FF0290207D1CB6842F2924730
:10167000C0F249073B4208BF1422009B02FB00F75F
:10168000BB4270D2681C4FD055BB0098B8422FD3D4
:101690000098013000900098B84264D20098B84297
:1016A00026D30098013000900098B8425BD2009891
:1016B000B8421DD30098013000900098B84252D231
:1016C0000098B84214D30098013000900098B842B6
:1016D000DBD348E00098013000900098B84233D244
:1016E00000F02AFB801BA842F4D90098B842F1D23E
:1016F000A06A40F00400A062002084F824000320C7
:1017000001B0F0BD0098013000900098B8422AD294
:101710000098013000900098B84224D2009801301F
:1017200000900098B8421ED20098013000900098B6
:10173000B842E7D317E000BF5422009B02FB00F73A
:10174000BB429FD30FE000BF21680CE00868800710
:1017500009D40868800706D4086880075CBF086859
:101760005FEA8070F2D56FF012000860A06A40F462
:101770000070A062886800F46020B0F5602F01D18D
:10178000207B18B1002001B0F0BD00BFA06A20F49A
:101790008070A062A06AC004F4D4A06A40F0010086
:1017A000A062002001B0F0BD10B5044690F82400FE
:1017B000012804BF022010BD012084F82400204627
:1017C000FFF720F920B1002184F8241010BD00BFDC
:1017D00042F2044C2068A16AC4F2010C40F20132CA
:1017E00091430CF57F7201F580719042A16233D074
:1017F000A16A21F48011A1624168490504D5A16A5A
:10180000012363F30D31A162A16A0023C9044FF0E3
:10181000000144BFE16A21F00601E1626FF00201BC
:1018200084F824300160816801F46021B1F5602FF3
:1018300006D190420AD1DCF8001011F4702F05D0C7
:10184000816841F480118160002010BD816841F4FD
:10185000A0018160002010BDDCF8001011F4702F91
:10186000C6D0A16A41F48011A162DCF800104905DC
:10187000C5D4C9E7B0B5044690F82400012804BFD8
:101880000220B0BD0121206884F824108168C907B6
:1018900009D0816821F00101816000F04DFA2168D2
:1018A0008968C9070ED1214651F8280F41F201126B
:1018B00020EA0202002042F001020A60002184F8BE
:1018C0002410B0BD054602E08068C007EBD000F0F0
:1018D00033FA411B20680329F6D38168C907F3D086
:1018E000A06A214640F01000A06251F82C2F012080
:1018F000E1E70000B0B5044600F01EFA054640F2EC
:101900001000C2F200000078611C18BF044400BF40
:1019100000F012FA401BA042FAD3B0BD2DE9F0430B
:1019200081B040F29866C2F20006327E012A03D1ED
:10193000022001B0BDE8F083054601202C68307616
:101940004CF250308846FFF753FB022C1CD1002884
:101950004ED1002042F21004F061C4F2020420686B
:1019600040F004002060206840F0400020604CF20D
:101970005030FFF73DFB216821F004012160002178
:10198000317601B0BDE8F08390BB4FF0FF30C8F86E
:101990000000D5E9027007EB8020874228D242F28E
:1019A0001004C4F202044FF0000900BFC6F81C90F6
:1019B000206840F0020020606760206840F040002E
:1019C00020604CF25030FFF713FB216821F0020138
:1019D000216098B9D5E9020107F5806700EB812005
:1019E0008742E3D300200021317601B0BDE8F083C7
:1019F00001200021317601B0BDE8F083C8F8007005
:101A00000021317601B0BDE8F083000042F2100100
:101A1000C4F20201086840F0800200200A607047AA
:101A20002DE9F04F81B040F29869C2F20009924668
:101A300099F81820012A03D1022001B0BDE8F08FE7
:101A40008046012089F818004CF250309B460E4623
:101A5000FFF7CEFAA0BB404642F21007B8F1020FE2
:101A600018BF0420C4F20207B8F1010F08BF4046B6
:101A700045424FF000080024C4F12001C9F81C8041
:101A80002AFA04F00BFA01F13A680843B4F1200194
:101A900058BF2BFA01F042F00101396026F8020B21
:101AA0004CF25030FFF7A4FA3968013521F00102F9
:101AB00048F100013A6018B9002904F11004DBD0A4
:101AC000002189F8181001B0BDE8F08F42F204003F
:101AD000C4F20200C16809065CBF0020704740F2F2
:101AE0002311C4F26751016048F6AB11CCF6EF51F7
:101AF0000160C068C0B2C009704700002DE9F04F16
:101B000082B041F20042C4F201020E680423904206
:101B100008BF0323002E009300F0F68040F20C4E25
:101B20004FF6FF7CC4F2010E00220124C1F2100C1A
:101B30004FF0000A4FF0000943E000BF012502F01A
:101B40000C040F27A7402BEA070705FA04F43C43CF
:101B500043F82640D1F804B040F20045C4F2010534
:101B60005FEACB332B6854BF23EA080343EA080338
:101B70002B606B685FEA8B3454BF23EA080343EAA7
:101B800008036B605FEACB24AB6854BF23EA080309
:101B900043EA08035FEA8B24AB60DEF800304FF0C5
:101BA000010454BF23EA080343EA0803CEF80030D7
:101BB0000E680AF1010A36FA0AF302F1040200F093
:101BC000A38004FA0AF816EA080FF1D04B686345BF
:101BD00012DC122B56D8DFE803F0350B454955557A
:101BE00055555555555555555555554D510000BFF1
:101BF000D1F80C9046E000BF4FF6FF77C1F2210705
:101C0000BB420FDC0027C1F21107BB421AD00027EC
:101C1000C1F21207BB4215D00027C1F22107BB4217
:101C200010D02FE00027C1F22207BB420AD00027C4
:101C3000C1F23107BB4205D00027C1F23207BB42D7
:101C400020D100BF8B684BB1012B14BFC0F81480AA
:101C5000C0F810804FF0080914E000BF4FF00409ED
:101C600010E000BFCB6803F108090BE04FF000095A
:101C700008E000BFCB6803F1040903E0CB6803F17F
:101C80000C0900BF13460546BAF1080F24BF203BDC
:101C900004352E680F279F40BE4309FA03F33343F0
:101CA0002B60CB79DB067FF583AF41F21804C4F2D9
:101CB000020423684FEA9A0643F001032360236875
:101CC00040F6000403F001030193019B40F200433E
:101CD000C4F20103A3F57E7353F826B0C4F20104E5
:101CE000A0420FD040F60044C4F20104A0423FF4E9
:101CF00025AF41F20004C4F20104009DA04208BFD8
:101D000002251CE700251AE702B0BDE8F08F0000AD
:101D10008068084018BF012070470000C26802EACE
:101D20000103914341EA034101617047002A08BF62
:101D3000090401617047000040F2B860C2F200007F
:101D40000068704770B5B8B3044690F83D0028B9F4
:101D5000002084F83C00204600F070FF242084F826
:101D60003D002068016821F001010160016841F433
:101D700000410160016821F40041016001F040FA76
:101D800048F28041C0F21E0140F60013D4F804E08E
:101D900088424FF00001C0F23D0348F2A16C4FF0C1
:101DA000000238BF01219842C0F2010C38BF012265
:101DB000E64538BF0A460AB1012070BD4DF6836181
:101DC000C4F21B31A0FB01122168950C4B684FF443
:101DD000967623F03F0343EA9243754344F6D35685
:101DE0004B60C1F262060B6AA5FB0656B50923F0EB
:101DF0003F03E64538BF950C6A1C1A430A62CA695C
:101E000048F2A0664CF6FF73C0F20106B64522EA1E
:101E100003020BD801384FEA4E03B0FBF3F0013058
:101E20006FF31F30042898BF04201EE0A368013818
:101E300063B119230EFB03F3B0FBF3F001306FF332
:101E40001F3078B100F5804008E000BF0EEB4E0374
:101E5000B0FBF3F001306FF31F3028B100F5004004
:101E600003E000BF012000E001201043C8610868C2
:101E7000D4E9072320F0C0001043184308608868A5
:101E800048F2FF3204F10C0690434CCE1843104345
:101E9000A5698860C86820F0FF0030432843C86007
:101EA000086840F00100086000202021206484F8C8
:101EB0003D10206384F83E0070BD00002DE9F04F16
:101EC00081B01D4690460E460446FFF735FF94F854
:101ED0003D10202918D107462168886980070FD551
:101EE000FFF72AFFC01B1928F6D900202021206304
:101EF00084F83D1084F83E00216C0225C1E000BF4B
:101F000094F83C00012805D10225284601B0BDE81F
:101F1000F08F00BF012084F83C000868C00703D19F
:101F2000086840F001000860086806F0FE0920F427
:101F300000600860242084F83D0000202064002018
:101F4000CFF6FF70012605F1010A4FF0A00BE06209
:101F5000B8F1020F98BF4FF00208086840F4807093
:101F600008604869C0070FD1BAF1000F56D0002DA4
:101F700000F09C80FFF7E0FEC01BA84200F29880B2
:101F800021684869C007F5D0C1F81090FFF7D4FE6A
:101F900021684B694A6994F83D70A02F07461ED00E
:101FA00013F0020008BF12F4806018D1FFF7C4FEDE
:101FB00035B1C01BA84288BF84F83DB002E000BF25
:101FC00084F83DB021684A69486994F83D30A02BF7
:101FD00005D012F0020208BF10F48060E6D0202085
:101FE00084F83D0048690A68800742F400720A607C
:101FF00022D46FF4806048618869800709D500BFEA
:10200000FFF79AFEC01B192832D82168886980071B
:10201000F6D401364645A0D13CE000BF4869C00770
:10202000B2D14869C00704BF48695FEAC070ABD14C
:102030004869C007F2D0A7E70025009548690090DD
:102040008869009000988869800708D5FFF774FEBA
:10205000C01B19280CD8206880698007F6D420207E
:1020600084F83D0084F83C50284601B0BDE8F08F6C
:1020700000202021206384F83D1084F83E00216C6C
:10208000012541F02001216484F83C00284601B07C
:10209000BDE8F08F202084F83D000020012584F861
:1020A0003C00284601B0BDE8F08F00BFFFF744FEBA
:1020B00000202021206384F83D1084F83E00216C2C
:1020C000032541F020012164216884F83C00086860
:1020D000C00544BF4FF400702064284601B0BDE83D
:1020E000F08F00002DE9F04782B0044600201F4623
:1020F000164688460090FFF71FFE94F83D102029F1
:102100001CD1054620688169890713D5FFF714FEA5
:10211000401B1928F6D900202021206384F83D10A7
:1021200084F83E00216C41F02001216484F83C00D9
:1021300004E000BF94F83C10012903D1022002B052
:10214000BDE8F087012184F83C100168C90703D17C
:10215000016841F001010160016821F40061016042
:10216000222184F83D10102184F83E1000212164C2
:1021700066626785618D21850021CFF6FF71E1627E
:10218000E16A026811F5803F42F48062026018BF84
:10219000012919D1016841F48071016041690A9EE9
:1021A000C90724D1711C18D0002E00F0CB8000BFCD
:1021B000FFF7C2FD401BB04200F2C68020684169B3
:1021C000C907F5D013E000BF0829E3D0216B11291E
:1021D000E0D0E3E74169C90709D14169C90706D1E0
:1021E0004169C90704BF41695FEAC171F2D0216941
:1021F000B1F5804F08D148F00101C9B201614169D0
:10220000890740F1CC8003E1062101EAD81707F1E4
:10221000F00101614169090738D44169721C01F478
:10222000806113D0002940F0EA80002E00F06A821D
:10223000FFF782FD401BB04200F2668220684169D0
:10224000090723D441694905F2D5D8E0002940F0B7
:10225000D6804169090719D44169490500F1CF8049
:102260004169090712D44169490500F1C8804169F3
:1022700009070BD44169490500F1C180416909078B
:1022800004D441694905E4D5B9E000BF5FFA88F19B
:1022900001614169890739D44169721C01F4806187
:1022A00014D0002940F0AB80002E00F02B82FFF705
:1022B00043FD401BB04200F2278220684169890734
:1022C00024D441694905F2D599E000BF002940F0C6
:1022D00096804169890719D44169490500F18F80C9
:1022E0004169890712D44169490500F18880416933
:1022F00089070BD44169490500F18180416989074B
:1023000004D441694905E4D579E000BF0021019179
:1023100041690191816901910199016841F48071DC
:1023200001604169C90734D1711C28D056B1FFF74B
:1023300003FD401BB04207D820684169C907F6D0A9
:1023400027E000BFFFF7F8FC00202021206384F87D
:102350003D1084F83E00216C41F020012164216889
:1023600084F83C000868C00544BF4FF40070206446
:10237000012002B0BDE8F0874169C90709D1416970
:10238000C90706D14169C90704BF41695FEAC17144
:10239000F2D047F0F10101614169890738D4416900
:1023A000721C01F4806111D049BB002E00F0AA819B
:1023B000FFF7C2FC401BB04200F2A68120684169D1
:1023C000890725D441694905F2D518E0B9B94169B1
:1023D00089071DD44169490511D44169890717D47A
:1023E000416949050BD44169890711D441694905FF
:1023F00005D4416989070BD441694905E7D50168CE
:1024000041F4007101606FF48061416104207CE15E
:10241000218D022910D0012924D0002938D1002192
:10242000019141690191816901910199016841F42A
:102430000071016037E000BF016841F40061016094
:10244000EFF3108072B6002001902068416901917D
:10245000816901910199016821F48061016062B68E
:1024600021E000BF016821F480610160EFF310807A
:1024700072B6002001902068416901918169019143
:102480000199016841F40071016062B60BE000BF80
:10249000016841F48061016000210191416901916D
:1024A000806901900198208D002800F01F8140F282
:1024B00028084BF28959771CC2F20008C1F2F8498A
:1024C0004FF0230A80B2032818D8022840D00128F0
:1024D00068D1002E00F0D6802068014651F8142FF4
:1024E000520600F1D3800868C00600F14381FFF76F
:1024F00023FC401BB042EFD931E100BF86B100BFE1
:102500002068014651F8142F52060ED40868C00600
:1025100000F13081FFF710FC401BB042F0D91EE102
:1025200020684169490640F113810069616A0870B9
:10253000606A2268411C208D616201382085638DAC
:10254000013B638553695B0740F1AC8010699FE0F4
:102550002068416949070FD4002F00F0A780002EA2
:1025600000F01C81FFF7E8FB401BB04200F218812D
:10257000206840694007F5D5EFF3108072B62068F7
:10258000616A026842F40072026000690870606A61
:10259000218D01306062481E2085608D0138608584
:1025A00062B66AE02068416949070FD4002F00F045
:1025B0008D80002E00F0F280FFF7BEFB401BB04282
:1025C00000F2EE80206841694907F5D5016821F4E1
:1025D00080610160EFF3108072B62068616A006963
:1025E0000870606A218D0130013960622185618D3A
:1025F00001396185D8F80010C908A1FB0912110A38
:1026000001FB0AF10091009901390091009900291C
:1026100000F08C8021684A6952071ED40099013964
:1026200000910099002900F0818021684A695207D1
:1026300013D40099013900910099002976D02168BE
:102640004A69520709D4009901390091009900297B
:102650006CD021684A695207D5D50A6842F40072E5
:102660000A6009690170606A218D01306062481E4C
:102670002085608D0138608562B62068616A0069D6
:1026800006E000BF20684169490661D50069616ABA
:102690000870606A218D01306062481E2085618D5E
:1026A0000139618501047FF40DAF1FE041694907DD
:1026B0003FF562AF416949075CBF41695FEA41711B
:1026C0003FF55AAF41694907F0D555E741694907D8
:1026D0003FF57CAF416949075CBF41695FEA4171E1
:1026E0003FF574AF41694907F0D56FE7202084F8C2
:1026F0003D00002084F83E0084F83C0002B0BDE8B4
:10270000F08700BFFFF718FB202000212022216363
:1027100084F83D2084F83E10226C1043206484F835
:102720003C10012002B0BDE8F08700BF002020214E
:10273000206384F83D1084F83E00216C41F02001B4
:10274000216462B684F83C00012002B0BDE8F08745
:1027500050F8141FC90601460CD4FFF7EDFA00200B
:102760002021206384F83D1084F83E00206C40F066
:1027700020000AE06FF01000086000202021206394
:1027800084F83D1084F83E00206C2064002084F81A
:102790003C00012002B0BDE8F08700BFFFF7CCFA93
:1027A00000202021206384F83D1084F83E00216C35
:1027B00041F02001216484F83C00012002B0BDE812
:1027C000F08700002DE9F04381B01F461646884689
:1027D0000446FFF7B1FA94F83D10202920D10546B0
:1027E00020688169890717D5FFF7A6FA401B1928C9
:1027F000F6D900202021206384F83D1084F83E00A3
:10280000216C022641F02001216484F83C0030460E
:1028100001B0BDE8F08300BF94F83C10012905D158
:102820000226304601B0BDE8F08300BF012184F8E4
:102830003C100168C90703D1016841F00101016042
:10284000016821F400610160212184F83D1010210C
:1028500084F83E100021216466626785618D2185C0
:102860000021CFF6FF71E162E16A11F5803F18BFE8
:10287000012919D1016841F4807101604169DDF8D5
:102880002090C90723D119F1010116D0B9F1000F29
:1028900046D000BFFFF750FA401B484542D8206899
:1028A0004169C907F6D012E00829E3D0216B12294B
:1028B000E0D0E3E74169C90709D14169C90706D1F9
:1028C0004169C90704BF41695FEAC171F2D021695A
:1028D000B1F5804F02D1FE2161E000BF062101EA7F
:1028E000D811F03101614169090757D4416919F1E3
:1028F000010201F480612FD0002946D1B9F1000F07
:1029000000F04281FFF718FA401B484500F23E8173
:1029100020684169090741D441694905F2D534E08D
:10292000FFF70AFA00202021206384F83D1084F884
:102930003E00216C012641F020012164216884F8C9
:102940003C000868C00544BF4FF400702064304666
:1029500001B0BDE8F08300BFB9B9416909071DD4D2
:102960004169490511D44169090717D441694905ED
:102970000BD44169090711D44169490505D441695E
:1029800009070BD441694905E7D5016841F4007195
:1029900001606FF4806141610420F8E0FF2101EAE9
:1029A00008010161416989073AD4416919F10102BD
:1029B00001F4806112D051BBB9F1000F00F0E0804A
:1029C000FFF7BAF9401B484500F2DC8020684169F6
:1029D000890725D441694905F2D518E0B9B941699B
:1029E00089071DD44169490511D44169890717D464
:1029F000416949050BD44169890711D441694905E9
:102A000005D4416989070BD441694905E7D50168B7
:102A100041F4007101606FF4806141610420B6E00F
:102A20000026009641690091816900910099218DED
:102A3000002900F0958009F10108014651F8142F92
:102A4000120635D4B8F1000F16D0B9F1000F00F01E
:102A5000AF8000BF0868400500F1B280FFF76CF955
:102A6000401B484500F2A9802068014651F8142F08
:102A70001206EFD51CE000BF0A68520500F1A080E5
:102A80000A68120614D40A68520500F199800A688F
:102A900012060DD40A68520500F192800A681206E7
:102AA00006D40A68520500F18B800A681206E3D545
:102AB000636A194611F8012B02616162618D013967
:102AC0006185278D0146A7F1010CA4F828C051F8B3
:102AD000142F52070DD55FEA0C420AD05A78A7F19D
:102AE000020C02619A1C6262628D013A6285A4F84E
:102AF00028C00A6852072FD4B8F1000F14D0B9F1DA
:102B0000000F7BD00868400500F18080FFF714F9C2
:102B1000401B484577D82068014651F8142F5207CA
:102B2000F0D5B4F828C017E00A6852056ED40A68D8
:102B3000520711D40A68520568D40A6852070BD4A8
:102B40000A68520562D40A68520705D40A68520519
:102B50005CD40A685207E7D55FEA0C417FF46DAF99
:102B6000016841F400710160202084F83D0084F880
:102B70003E6084F83C60304601B0BDE8F08300BFA1
:102B8000FFF7DAF8202002E0FFF7D6F82020002136
:102B90002022216384F83D2084F83E10226C012617
:102BA0001043206484F83C10304601B0BDE8F08347
:102BB0000868400504D4FFF7BFF8202004E000BFF8
:102BC0006FF480600860042000212022216384F8D3
:102BD0003D2084F83E10226C1043206484F83C10A1
:102BE000206C042825D120680126016841F4007179
:102BF0000160304601B0BDE8F08300BF08684005C1
:102C000004D4FFF799F8202004E000BF6FF480603F
:102C10000860042000212022216384F83D2084F8EC
:102C20003E10226C1043206484F83C10206C042871
:102C3000D9D00126304601B0BDE8F08310B586B08A
:102C4000006845F60001C4F2000188424FF000011F
:102C5000CDE90411CDE902112AD045F20041C4F2B8
:102C60000001884248D141F21804C4F202042068ED
:102C700002A940F008002060206800F008000190E0
:102C80000198C0200290122003900320059040F686
:102C90000040C4F20100FEF731FF606840F400100C
:102CA0006060606800F400100190019806B010BDEB
:102CB00041F21804C4F20204206802A940F008009E
:102CC0002060206800F00800019001984FF44060F7
:102CD0000290122003900320059040F60040C4F2B9
:102CE0000100FEF70BFF606840F4800060606068E0
:102CF00000F480000190019806B010BD40F2100071
:102D000040F2B861C2F20000C2F2000100780A6825
:102D1000104408607047000080B542F20000C4F221
:102D20000200016841F010010160032000F07AF810
:102D3000002000F005F800F027F8002080BD00001A
:102D400070B540F21006C2F2000640F22801327857
:102D5000C2F200014FF47A730968B3FBF2F2044641
:102D6000B1FBF2F1084600F04DFC0F2C4FF00105CD
:102D700008D838B94FF0FF3021460022002500F076
:102D800025F87460284670BD82B041F21800C4F284
:102D900002000168022241F001010160016801F0B6
:102DA000010101910199416841F080514160406801
:102DB00000F08050009000980420C4F201000168E7
:102DC00062F31A61016002B07047000010B54EF660
:102DD0000C5CCEF2000CDCF80030C3F3022E8EF057
:102DE0000704042C28BF0424BEF103034FF0FF3E68
:102DF0000EFA04F438BF0023A14399400EFA03F3FE
:102E00009A43114300F00F02043A624409010C3264
:102E100000F16043B0F1FF3FC8BF03F56442117099
:102E200010BD00004EF60C51CEF200010A684FF6BC
:102E3000FF031A4060F30A2242F0806040F0FD7008
:102E40000860704780B5012818D0022836D01028B5
:102E500032D141F20401C4F202010A6851F8040CB3
:102E6000C00129D5C2F383402DA3185CD2033DD401
:102E700040F60012C0F23D02504343E041F204002C
:102E8000C4F20200C16940F202320A40B2F5817F09
:102E900004BF4FF4004080BD01F44071B1F5407FA4
:102EA0001CD0B1F5007F07D1006A49F64041800788
:102EB00001EAE07080BD00BF002080BD00F0B4F9E1
:102EC00041F20401C4F2020109680222C1F3813116
:102ED00002EB4101B0FBF1F080BD00BF50F8040CE3
:102EE0004FF22441800301EAE07080BD0A6810A31C
:102EF000C2F340429A5C41F20023C0F27A03B3FB72
:102F0000F2F250430968490248BF80BD4AF6AB213E
:102F10004000CAF6AA21A0FB0101480880BD00BFFD
:102F200002030405060708090A0B0C0D0E0F10100A
:102F3000010200002DE9F04182B00446007841F220
:102F40001C06C007C4F202064AD0306810F0805850
:102F500008D1306840F080503060306800F0805018
:102F60000190019847F20007C4F200073868C005D5
:102F700012D4386840F480703860FEF7DDFE0546F4
:102F80003868C00508D4FEF7D7FE401B6428F7D97F
:102F9000032002B0BDE8F081706810F4407012D0D8
:102FA000616801F4407188420DD0706840F240427F
:102FB000C4F24222012320F4407113600023C007B1
:102FC000136071602AD17068616820F44070084312
:102FD000B8F1000F706003D1306820F0805030608D
:102FE0002068810707D556F8181CA26821F44041D3
:102FF000114346F8181CC00604D4002002B0BDE8F6
:10300000F08100BF56F8180CE16820F480000843F6
:1030100046F8180C002002B0BDE8F081FEF78CFEE7
:10302000054641F2883700BF70688007CBD4FEF7B1
:1030300083FE401BB8424FF00300F5D9EBE70000D8
:103040002DE9F04381B0002800F0858042F20008AD
:10305000C4F202080446D8F800000D4600F007004C
:1030600088420CD2D8F8000020F007002843C8F8A6
:103070000000D8F8000000F00700A8426BD12068DB
:1030800041F204098107C4F2020917D5410705D5A9
:10309000D9F8001041F4E061C9F80010010705D526
:1030A000D9F8001041F46051C9F80010D9F80010A7
:1030B000A26821F0F0011143C9F80010C00741D106
:1030C000D8F8000000F00700A8420CD9D8F800009A
:1030D00020F007002843C8F80000D8F8000000F0EE
:1030E0000700A84237D12068410707D5D9F800105A
:1030F000E26821F4E0611143C9F80010000708D527
:10310000D9F80000216920F4605040EAC100C9F8F4
:103110000000D9F8002002F00C00082841F200203D
:10312000C0F27A0050D148F20263C2F38341C0F684
:103130000003595CD2033BD440F60010C0F23D00BE
:10314000484341E0606802280AD001282AD159F892
:10315000041C890308D4012001B0BDE8F08300BF3E
:1031600059F8041C8901F6D5D9F8001021F00301A3
:103170000843C9F80000FEF7DFFD064641F2883734
:10318000D9F80000616800F00C00B0EB810F97D017
:10319000FEF7D2FD801BB842F2D9032001B0BDE892
:1031A000F08300BF59F8041C8907D4D5DCE700BFC1
:1031B000D9F8002047F22013C2F34042C0F60003C2
:1031C0009A5C4843B0FBF2F0D9F8001047F22212A3
:1031D000C1F30311C0F60002515C40F2280220FA4C
:1031E00001F140F21400C2F200000068C2F20002D5
:1031F0001160FFF7A5FD002001B0BDE8F0830000DD
:1032000040F2280041F20401C2F20000C4F20201BF
:103210000068096847F23212C1F30221C0F60002C9
:10322000515CC8407047000040F2280041F20401A0
:10323000C2F20000C4F202010068096847F23212CB
:10324000C1F3C221C0F60002515CC84070470000C3
:103250002DE9F04182B0002868D00446007841F2A0
:103260000006C007C4F2020625D0706800F00C000A
:1032700004281BD0706800F00C00082802D1706888
:10328000C00313D46068002800F06881B0F5A02F57
:1032900000F07C81B0F5803F00F07C81306820F444
:1032A00080303060306820F4802076E13068800320
:1032B00001D56068D0B32078800718D5706810F009
:1032C0000C0F07D0706800F00C0008286ED17068F1
:1032D000C0036BD43068800702D52069012825D14E
:1032E0003068616920F0F80040EAC1003060207861
:1032F00000071FD42078400732D4E56995B1706883
:1033000000F00C00082840F08F80012D0ED070686E
:10331000216A00F480328A4208D1616A00F4701098
:10332000884203D1002002B0BDE8F081012002B044
:10333000BDE8F081A069002862D00020C4F24220DC
:103340000121C0F88014FEF7F7FC0546706A80077B
:1033500000F18C80FEF7F0FC401B0228F6D92AE130
:10336000F06910F0805808D1F06940F08050F061A9
:10337000F06900F080500090009847F20007C4F216
:1033800000073868C00529D4386840F48070386078
:10339000FEF7D2FC054600BF3868C0051ED4FEF714
:1033A000CBFC401B6428F7D905E100BF2069002849
:1033B00040F20000C4F2422000F08280012101604E
:1033C000FEF7BAFC054600BF306880073FF588AFBE
:1033D000FEF7B2FC401B0228F6D9ECE0E0680028BA
:1033E00000F08080052800F09780012800F0988088
:1033F000306A20F001003062306A20F0040092E070
:103400000020C4F242200021C0F88014FEF794FC92
:10341000054600BF706A80077FF56CAFFEF78CFC35
:10342000401B0228F6D9C6E00027C4F2422700203C
:103430003866FEF781FC022D05460BD1306880010D
:1034400040F1BE80FEF778FC401B02284FF00300DD
:10345000F4D968E7306880017FF564AFFEF76CFC53
:10346000401B02284FF00300F4D95CE740F228002B
:10347000C2F20000006844F6D351C1F26201A0FB21
:103480000101480A019000BF00BF0198411E0028B9
:1034900001913FF42FAF00BF0198411E0028019118
:1034A0003FF428AF00BF0198411E002801913FF46E
:1034B00021AF00BF0198411E00280191E4D119E716
:1034C00000210160FEF738FC054600BF3068800728
:1034D0007FF50DAFFEF730FC401B02284FF00300D4
:1034E000F4D920E7306A20F001003062306A20F021
:1034F00004003062FEF720FC054641F2883700BF29
:10350000306A800720D5FEF717FC401BB8424FF009
:103510000300F5D907E700BF306A40F004003062CD
:10352000306A40F001003062FEF706FC054641F2C9
:10353000883700BF306A800706D4FEF7FDFB401BCA
:10354000B842F7D937E000BFB8F1000F7FF4D5AE2D
:10355000F06920F08050F061CFE600BF306820F4C1
:1035600080303060306820F480203060FEF7E4FB6B
:10357000054600BF306880037FF59DAEFEF7DCFB9B
:10358000401B64284FF00300F4D9CCE6306840F4C7
:1035900080203060306840F480303060FEF7CCFB33
:1035A000054600BF306880033FF585AEFEF7C4FBDB
:1035B000401B6428F6D9032002B0BDE8F08100BFAB
:1035C000206AB0F5803F05D17168A26821F400310E
:1035D000114371607168626A21F4741110430843E9
:1035E000706001203866FEF7A7FB04463068800152
:1035F0003FF598AEFEF7A0FB001B02284FF003003A
:10360000F4D990E6411E0020B0EB116F1CBF0120E1
:1036100070474EF21002CEF2000251604EF6235176
:10362000CEF20001F0230B7007219060116070470B
:1036300010B590F83C20012A4FF0020233D080F8F8
:103640003D200268D2F804E0D2F808C00C682EF0E1
:103650007003234340F2FF74C4F20004A24253609B
:103660000ADCB2F1804F13D040F20043C4F20003F1
:103670009A420DD011E000BF42F60043C4F20103AC
:103680009A4205D040F60003C4F200039A4204D1E6
:1036900049682CF08003194391600121002280F8D1
:1036A0003D1080F83C20104610BD0000002804BFEB
:1036B0000120704710B5044690F83D0028B900205D
:1036C00084F83C00204600F067F8022084F83D00B2
:1036D000206840F2FF730268C4F2000342F6004C17
:1036E0009842C4F2010C15DCB0F1804F1AD040F2C0
:1036F0000041C4F20001884214D0984218DCB0F1B5
:10370000804F1DD040F20041C4F20001884217D022
:103710001AE000BF604505D040F60001C4F2000188
:103720008842EAD1A16822F070020A439842E6DD9D
:10373000604505D040F60001C4F20001884203D183
:10374000216922F440720A43A36922F08001D4F86F
:1037500004E0E268194360450160C262C0F828E0F5
:1037600002D16169CCF8301001214161002084F858
:10377000461084F83E1084F83F1084F8401084F816
:10378000411084F8421084F8431084F8441084F8FF
:10379000451084F83D1010BD81B0006840F600016E
:1037A000C4F20001884201D001B0704741F21C0010
:1037B000C4F20200016841F004010160006800F0F9
:1037C00004000090009801B07047000090F83D1090
:1037D00001291CBF01207047022180F83D100068BC
:1037E00040F2FF71C4F20001884209DCB0F1804F61
:1037F00012D040F20041C4F2000188420CD012E025
:1038000042F60041C4F20101884205D040F60001B1
:10381000C4F20001884206D1816801F0070106293F
:1038200004BF00207047016841F0010101600020E1
:10383000704700000146006841F21113026A1A4203
:1038400004D00122002081F83D207047026A40F236
:1038500044431A42F5D1026822F0010202600122BB
:10386000002081F83D20704780B590F83C20012A67
:103870004FF0020200F0BF8080F83D20D0F800C079
:103880004FF67772DCF8083023EA0202CCF8082001
:103890000B683F2B1CDD5F2B20DD602B50D0B3F578
:1038A000005F6DD0702B40F0A080D1E901E3C968C2
:1038B000DCF8082043EA0E0322F47F4243EA0121A8
:1038C0001143CCF80810DCF8081041F077018AE0C9
:1038D0001F2B29DC63B3102B2AD086E0402B63D04A
:1038E000502B40F08280D1F804E0C968DCF8203029
:1038F000DCF8202022F00102CCF82020DCF818208F
:1039000022F0F00242EA011123F00A0242EA0E021A
:10391000CCF81810CCF82020DCF8081041F0570142
:1039200021F020015FE000BF202B01D0302B5CD1C3
:10393000DCF8081021F07001194341F0070152E052
:10394000D1F804E0C968DCF8203023F01003CCF88B
:103950002030DCF81830DCF8202023F4704322F00B
:10396000A00243EA013142EA0E12CCF81810CCF85A
:103970002020DCF8081041F0670121F0100132E04E
:10398000D1E901E3C968DCF8082043EA0E0322F418
:103990007F4243EA01211143CCF80810DCF80810FB
:1039A00041F480411FE000BFD1F804E0C968DCF8B1
:1039B0002030DCF8202022F00102CCF82020DCF8B6
:1039C000182022F0F00242EA011123F00A0242EA32
:1039D0000E02CCF81810CCF82020DCF8081041F0CA
:1039E000470121F03001CCF808100121002280F8B5
:1039F0003D1080F83C20104680BD000080B586B0A8
:103A000040F600010068C4F20001002288420492DE
:103A100002D006B080BD00BF41F21800C4F202001F
:103A2000026842F008020260006800F0080001909D
:103A300001984FF40070029002200390059001F568
:103A4000823002A9FEF75AF806B080BD2DE9F04198
:103A500090F83C30012B04BF0220BDE8F0814FEA12
:103A6000B202032A2FD8DFE802F00335659B00BFBE
:103A7000026842F60045136AC4F2010523F001030F
:103A80001362146A5368D2F818C0AA428D68D1F83C
:103A900000E024F0020444EA05040BD1CD68D1E92A
:103AA000056723F4407324F00C0425F00405334328
:103AB0002C433B432CF0730747EA0E075360976192
:103AC000496851631462002180F83C100846BDE843
:103AD000F08100BF026842F60045136AC4F2010596
:103AE00023F010031362146A5368D2F818C0AA4274
:103AF0008D68D1F800E024F0200444EA05140FD1C9
:103B0000CD68D1E905876FF0400623F4406324F0C7
:103B1000C00406EA051543EA88032C4343EA8703F9
:103B20002CF4E64747EA0E27536097614968916392
:103B30002EE000BF026842F60045136AC4F2010598
:103B400023F480731362146A5368D2F81CC0AA422B
:103B50008D68D1F800E024F4007444EA05240FD104
:103B6000CD68D1E905872D0240F2FF4623F440538A
:103B700024F44064B54343EA08132C4343EA071393
:103B80002CF0730747EA0E075360D7614968D16389
:103B90001462002180F83C100846BDE8F08100BFA7
:103BA000026842F60046136AC4F2010623F4805309
:103BB0001362136A5468D2F81CE00D68D1F808C08B
:103BC000B24204D14E6924F4804444EA86142EF4AF
:103BD000E64747EA05275460D76123F40053496854
:103BE00043EA0C3311641362002180F83C1008464C
:103BF000BDE8F081002804BF0120704710B50446DD
:103C000090F83D0028B9002084F83C00204600F0E0
:103C100067F8022084F83D00206840F2FF730268D4
:103C2000C4F2000342F6004C9842C4F2010C15DCC9
:103C3000B0F1804F1AD040F20041C4F20001884236
:103C400014D0984218DCB0F1804F1DD040F20041F2
:103C5000C4F20001884217D01AE000BF604505D0C9
:103C600040F60001C4F200018842EAD1A16822F0C6
:103C700070020A439842E6DD604505D040F6000137
:103C8000C4F20001884203D1216922F440720A4340
:103C9000A36922F08001D4F804E0E268194360458A
:103CA0000160C262C0F828E002D16169CCF830102E
:103CB00001214161002084F8461084F83E1084F808
:103CC0003F1084F8401084F8411084F8421084F8C2
:103CD000431084F8441084F8451084F83D1010BD5A
:103CE00070470000002804BF0120704710B504464B
:103CF00090F83D0028B9002084F83C00204600F0F0
:103D00005FF8242084F83D002068D4E90212C368DB
:103D100023F40053C360036923F440531A43026140
:103D2000D4E904231143C268194341F20C639A4356
:103D30001143C1604169A26921F44071114343F606
:103D40000002C4F201029042416103D0FFF758FA29
:103D500002E000BFFFF768FA62681921484391004A
:103D6000B0FBF1F048F21F51C5F2EB11A0FB0123AB
:103D70005A096FF0630302FB0300322303EB0010C8
:103D8000A0FB0101F02303EA5113206803EB0212A8
:103D9000C1F3431111448160016921F49041016133
:103DA000416921F02A014161C16841F40051C160BB
:103DB00000202021206484F83D1084F83E1010BDBE
:103DC00070B586B040F60004C4F201040068A4F5A2
:103DD000444100268842049602D006B070BD00BF60
:103DE00041F21800C4F20200416802AD41F4003112
:103DF0004160416801F4003101910199016841F08D
:103E0000040101600068294600F004000190019857
:103E10000420029002200390032005902046FDF725
:103E20006DFE0820CDE90206204629460496FDF7DE
:103E300065FE06B070BD00002DE9F04381B0044678
:103E400090F83D0020280DD10F4600294FF00100C9
:103E500000F092801646002A00F08E8094F83C0014
:103E6000012803D1022001B0BDE8F083012084F8CD
:103E70003C004FF0000921201D46C4F8409084F812
:103E80003D00FDF759FFA684E684A1688046B1F5A0
:103E9000805F25D1206900281CBF38464F463E462A
:103EA000074684F83C90E08C00B3681C20D0002DBD
:103EB00066D120680BE000BF36F8021B00276FF3C5
:103EC0005F214160E18C0139E184E18C81B30168BB
:103ED000090675D5002FEFD017F8011BF1E700BFD9
:103EE000002684F83C90E08C0028DED120681FE09A
:103EF000206802E00168090609D40168090606D4B1
:103F0000016809065CBF01685FEA0161F2D51FB173
:103F100017F8011B05E000BF36F8021B00276FF3FE
:103F20005F214160E18C0139E184E18C0029E4D119
:103F3000016849061CD4002D42D0691C0ED10168CD
:103F4000490615D4016849065CBF01685FEA416112
:103F50000ED401684906F2D50AE000BFFDF7ECFE79
:103F6000A0EB08012068A9422AD800684006F5D5D0
:103F7000202084F83D00002001B0BDE8F08300BFA0
:103F8000206800BF0168090608D4FDF7D5FEA0EB44
:103F900008012068A942F5D912E000BF17B117F84F
:103FA000011B04E036F8021B00276FF35F2141601C
:103FB000E18C0139E184E18C0029E3D1B8E700BF4D
:103FC000C16821F4D071C160416921F001014161F2
:103FD000202084F83D0084F83E00002084F83C0056
:103FE000032001B0BDE8F083FEE70000FEE700001B
:103FF00070470000704700000160704770B584B0E2
:104000000C460546002100688DF80810642602AAB7
:10401000D02101230096FEF7D5FB28680DF1090297
:10402000D02107230096FEF75DF89DF809009DF862
:104030000A10060906EB860600F00F0000EB4600AA
:10404000207008099DF80B2000EB800001F00F01A3
:1040500001EB4000607010099DF80C3000EB80000F
:1040600002F00F0101EB4000A070180900EB800086
:1040700003F00F0101EB40009DF80D10E0700809FE
:1040800000EB800001F00F0101EB40009DF80E10E5
:104090002071080900EB800001F00F0101EB4000E6
:1040A0009DF80F106071080900EB800001F00F010E
:1040B00001EB4000A07104B070BD000080B5024665
:1040C000002840F28010C2F200004FF4806118BF57
:1040D000FF22FCF747F880BD40F23002C2F2000236
:1040E00050809180704700002DE9F04182B040F28D
:1040F0008050C2F200007821012244F62063FDF7CF
:10410000DDFE4FF0000418B1204602B0BDE8F0819A
:1041100040F280554FF42E40C2F20005ADF8060083
:104120000A260DF106022846782102230096FEF7A2
:1041300049FB4FF400580DF106022846782102236E
:10414000ADF806800096FEF73DFB4FF480570DF169
:104150000602284678210223ADF806700096FEF785
:1041600031FB4FF43040ADF806000DF10602284651
:10417000782102230096FEF725FB4FF44840ADF866
:1041800006000DF106022846782102230096FEF76C
:1041900019FB0DF10602284678210223ADF80640EE
:1041A0000096FEF70FFB0DF1060228467821022348
:1041B000ADF806700096FEF705FB4FF48040ADF8B1
:1041C00006000DF106022846782102230096FEF72C
:1041D000F9FA4FF40140ADF806000DF10602284649
:1041E000782102230096FEF7EDFA4FF47F40ADF8F8
:1041F00006000DF106022846782102230096FEF7FC
:10420000E1FA4FF42140ADF806000DF10602284610
:10421000782102230096FEF7D5FA4FF42640ADF838
:1042200006000DF106022846782102230096FEF7CB
:10423000C9FA4FF42840ADF806000DF106022846F1
:10424000782102230096FEF7BDFA4FF47C50ADF8BA
:1042500006000DF106022846782102230096FEF79B
:10426000B1FA4FF42440ADF806000DF106022846DD
:10427000782102230096FEF7A5FA4FF45340ADF8DB
:1042800006000DF106022846782102230096FEF76B
:1042900099FA0DF10602284678210223ADF806406E
:1042A0000096FEF78FFA4FF45540ADF806000DF179
:1042B00006022846782102230096FEF783FA4FF47F
:1042C0007040ADF806000DF1060228467821022361
:1042D0000096FEF777FA4FF45940ADF806000DF15D
:1042E00006022846782102230096FEF76BFA4FF467
:1042F0000850ADF806000DF1060228467821022389
:104300000096FEF75FFA4FF45A40ADF806000DF143
:1043100006022846782102230096FEF753FA4FF44E
:104320009050ADF806000DF10602284678210223D0
:104330000096FEF747FA4FF45B40ADF806000DF12A
:1043400006022846782102230096FEF73BFA0DF17B
:104350000602284678210223ADF806800096FEF773
:1043600031FA4FF40D40ADF806000DF10602284673
:10437000782102230096FEF725FA4FF4A050ADF8FD
:1043800006000DF106022846782102230096FEF76A
:1043900019FA4FF42F40ADF806000DF10602284639
:1043A000782102230096FEF70DFA4FF43850ADF84D
:1043B00006000DF106022846782102230096FEF73A
:1043C00001FA40F28010C2F200004FF48061FBF766
:1043D000D0FE00F0A5F840F23000C2F20000C0F8B4
:1043E00002400124204602B0BDE8F0812DE9F04FE3
:1043F00087B040F23003C2F20003B3F802A00E7897
:1044000006EB0A077F2F05D89F884D7803972F4426
:104410003F2F03D9002007B0BDE8F08F1B78B2FA18
:1044200082F77F09002B05971CBF3A460123002D18
:104430000693009050D0013A2038B2FA82F240F24E
:1044400080190190002750093346C2F200090490F8
:1044500004E000BF00230137AF423DD2002BF9D06A
:104460000398C21994B23F2CF5D801984C6805FB0B
:104470000070012334F8108002F0070003FA00F501
:104480004FF68070C0F20F00029700EA021EE84368
:10449000002703E00E780137B74219D20AEB07066E
:1044A000B6B27F2EF6D8764408FA07F319F806B0AC
:1044B0001B04049B0BEA000CDDE9052458BF82EACB
:1044C0000403002B18BF4BEA050C09F806C0E1E70E
:1044D0004D78029F3346BEE7F0B240F230015044BF
:1044E000C2F2000148805DF81C0BBDE8F08F0000AF
:1044F00070B503787BB114460D46461CD8B22946E8
:104500002246FFF773FF16F8011C884206D116F801
:10451000013B002BF2D1002070BD00BF084670BDEA
:104520002DE9F04FC1B00DF1040B40F280560BF1B4
:1045300001094FF000086FF07F050A24C2F200065F
:104540004FF0000A40F28010C2F20000284400F14F
:104550008007AAF150008DF80500304678215A46B0
:1045600002238DF804800094FEF72CF93046782160
:104570005A460223ADF804800094FEF723F94FF465
:104580008050ADF80400304678215A46022300944A
:10459000FEF718F940208DF804004846394680227D
:1045A000FBF7C0FD304678215A4681230094FEF780
:1045B00009F98035B5F5607F0AF1010AC2D141B031
:1045C000BDE8F08F70470000FEF798BB7047000011
:1045D00070B5002908BF70BD0C460546002605E0F1
:1045E0002846013CFFF726F9200417D028684662C8
:1045F0002846FFF7EBF82868416AC9087C29EFD8FC
:10460000416AC9087C29EBD8416AC9087C29E7D8E6
:10461000416AB1F57A7FEFD3E2E700BF70BD0000D9
:10462000B0B5044600680D46002141622046FFF700
:10463000CDF82068416AA94208D2416AA94205D250
:10464000416AA94202D2416AA942F3D32046BDE899
:10465000B040FFF7EFB80000FEE7000070B540F291
:104660003804C2F2000404F15401884210D040F230
:10467000A401C2F20001884218BF70BD40F20400DC
:10468000C2F200000178B1FA81F14909017070BDF0
:1046900040F20400C2F200000021417000F07EF9F7
:1046A000D4E90401FBF7FEFF40F2A406C2F20006C3
:1046B00006F13805044606F13C0029462C22FBF79A
:1046C00031FDB46300F022FD4FF60044C0F6000453
:1046D000204600F0FDF820462946302200F044F93B
:1046E0000A20BDE87040FDF705B9000040F238012E
:1046F000C2F200015431884240F2A401C2F200012A
:104700001CBF88427047884240F204004FF001020B
:10471000C2F2000008BF04224270704740F2380124
:10472000C2F2000101F12402904211D001F13C02D9
:10473000904218BF704740F20400C2F20000427875
:10474000022A04D10978012904BF0321417070476E
:1047500040F204000B78C2F2000002224270581CA2
:10476000C2B2AB235A43520A02EB4202801A0870CB
:10477000704700007047000010B504460069A18A28
:10478000FDF7C6FAA178884205D0A0700120E0703C
:10479000FDF7D2FA6060E07848B1FDF7CDFA6168C4
:1047A000401A0F2803D3A07820700020E0702078F2
:1047B000617888421AD078B1FDF7BEFAA168401A34
:1047C000B0F57A7F02D82046FFF748FF2046FFF772
:1047D000D1FF0020207307E0012020732046FFF75F
:1047E0009DFFFDF7A9FAA06020786070207B68B17A
:1047F000FDF7A2FAA168401A40F6B831884238BFE6
:1048000010BD2046FFF772FF0020207310BD00008E
:104810000161828270470000F0B581B040F2050668
:10482000C2F20006307810F0FB0F45D0012848D0C6
:10483000022838D140F23800C2F200000778002088
:10484000FFF73CFC01200121FFF746FC40F2200469
:1048500048F22C60C2F200047A1EC0F60000214625
:1048600018BF0122FFF744FE48F21265C0F60005AA
:10487000284621460122FFF73BFE01200F21FFF7CA
:104880002BFC48F22060BA1EC0F60000214618BF7B
:104890000122FFF72DFE284621460122FFF728FEC0
:1048A000FFF73EFE3078032808BF00F05FFB01B041
:1048B000BDE8F040FFF734BE01F02AFD3078012852
:1048C000B6D100F0ABFA30780228ECD1B2E70000A4
:1048D00010B586B00446FDF7F9F801200590CDE942
:1048E00003040020029002A801A9FDF717F8FDF7C4
:1048F0008DF806B010BD000070B5A2B301324FF0C4
:10490000FF3303EB5203032BC2F3410C02D200230B
:1049100016E000BF520822F0030E0022002300BF61
:10492000845A85188C526C888E187480AC88043335
:10493000B480EC889E4502F10802F480F0D1114465
:10494000BCF1000F08BF70BD30F81320BCF1010F9F
:104950000A8008D000EB43004288BCF1020F4A8075
:104960001CBF8088888070BD70B516460D46044611
:10497000FDF7ACF86EB1701C4608023D35F8022F09
:10498000012021460023FDF74BF8013E04F102040B
:10499000F4D1BDE87040FDF739B800002DE9F041D1
:1049A00040F20C14C2F200042046FCF7FDFE204643
:1049B0004FF47A71FCF7C4FD2046FCF7DDFC40F2B1
:1049C0003807C2F2000778802046FCF753FF40F218
:1049D0000408C2F20008D8F808400021C4F2A0017F
:1049E0002046FBF7D8FBFBF74AFE054678880E46C3
:1049F000FBF700FE46F26663C4F20A034FF066322C
:104A0000FBF7E0FC4FF60063C4F2AF030022FBF7B4
:104A10004BFD02460B4628463146FBF745FD054651
:104A200020460E46FBF72BFE02460B462846314633
:104A3000FBF7C2FCFBF736FE98F8001006467860DC
:104A400061B1012924D141F698644AF61461CBF68C
:104A5000FC740025C4F203110AE000BF47F6FC1401
:104A600044F2AE71CBF6F5744FF00045C4F28D11EF
:104A7000D8F80400FBF78FFB01463046FBF7BDFB7F
:104A8000FBF7FDFD2A46234601F0E4FDC7E90401DA
:104A900040F2A400C2F200001830BDE8F041FCF77B
:104AA00051B8000096B040F2380BC2F2000B0BF187
:104AB000180940F2D45140F60048C2F200014846BD
:104AC000C4F20108FFF798FAFEF726F90025012045
:104AD000CDE91155CDE90F551090102011904FF4EC
:104AE0006010022115900CA8CDE90D550595CDE972
:104AF00003550C91139102241495FEF7A9FB0F2086
:104B000007A931C14FF48060CDE90A0507A8022149
:104B1000FEF796FA4FF40040049002A80294FEF7C4
:104B200009FA41F21800C4F20200016808F5806A2F
:104B300041F0100101600168002201F010010C91A8
:104B40000C9901684FF4005441F0040101600168C0
:104B500001F004010C910C99016841F00801016019
:104B600000684FF4005100F008000C900C9850467B
:104B7000FDF7DCF840464FF450410122FDF7D6F82E
:104B800040464FF400510022FDF7D0F8A8F58066AA
:104B900030464FF4006101220096FDF7C7F802206D
:104BA0000DF1300801270F90504641460C94CDE995
:104BB0000D750224CDF804A0FCF7A0FFCDE90E741A
:104BC00040F600444FF45040C4F20104CDE90C0714
:104BD000204641464FF0020AFCF790FF4FF4005088
:104BE000CDE90C0720464146CDE90E5A4FF0020AA6
:104BF000FCF784FF4FF40060CDE90C0730464146D6
:104C00000E970127CDF83CA0FCF778FF40F20C1678
:104C100004F5C050C2F200064FF46021C6E9000559
:104C2000304635733575F161B5603761FCF7A8FB27
:104C300007200E900CA93046CDE90C57FCF7D2FAAC
:104C400040F28050A4F53841C2F2000041F68022C3
:104C50004FF4804AC0F2060280E82600C0E9035AF9
:104C6000C0E90555C0E90755FDF76CF840F2286723
:104C7000A4F58230C2F2000747214FF6FE7287E8A2
:104C8000230038460A95CDE90855CDE90255CDE90E
:104C90001155CDE90F55C7E90325BD61FEF706FDA6
:104CA0004FF48050079007A93846FEF7DDFD3846DF
:104CB000FEF7A0FF02A93846FEF7BAFC0CA9384659
:104CC0000C22CDE90C550E9510954FF00C08FEF70F
:104CD000BDFE3846FEF792FE40F2D452A4F53440B1
:104CE00048F2A061C2F20002C0F2010182E8230092
:104CF0001046C2E9035AC2E90555C2E90755FDF756
:104D000021F8A4F54841304640F8301F4FF4E13116
:104D1000C6E90D15C6E90F55C6E91185F564FEF71C
:104D2000E1FF40F2A40AC2F2000A0AF11800394673
:104D300022464FF40053FBF7C3FE0BF154073846ED
:104D400021464FF48052A046FFF762FD009950467D
:104D50004FF40062FFF75CFD0BF124052846214665
:104D60004FF48042FFF754FD0BF13C0420464146CE
:104D70004FF40042FFF74CFD3046FCF7A9F9FFF76E
:104D8000B3F944F2000640F20408C4F28F06C2F2FE
:104D9000000801E0FFF740FD3846FFF7EDFC504604
:104DA000FFF7EAFC2846FFF7E7FC2046FFF7E4FCA4
:104DB0000BF11C014846FFF721F9DBE90401002251
:104DC0003346FBF7FCFBA8B9FCF7B6FFDBF808108D
:104DD000401AB0F57A7F0DD301984FF40051FCF7DB
:104DE0009DFFFCF7A9FFCBF80800FFF7D7FDFFF701
:104DF00013FDD1E798F801000428CBD1FCF79CFF04
:104E0000DBF80810401AB0F57A7FC3D3FFF7C6FD70
:104E1000FCF792FFCBF80800BCE7000070B500205B
:104E2000FFF74CF940F20C00C2F2000004680021C8
:104E3000C4F2A0012046FBF7AEF9FBF720FC0546C3
:104E400040F23A00C2F2000000880E46FBF7D2FBA7
:104E500046F26663C4F20A034FF06632FBF7B2FA19
:104E60004FF60063C4F2AF030022FBF71DFB0246BE
:104E70000B4628463146FBF717FB054620460E46F3
:104E8000FBF7FDFB02460B4628463146FBF794FA3A
:104E9000FBF708FC40F20805C2F20005286001207B
:104EA0000121FFF719F940F22004C2F2000411A019
:104EB00021460122FFF71CFB01200A21FFF70CF914
:104EC0000FA021460122FFF713FB01201421FFF759
:104ED00003F90EA021460122FFF70AFB2868FBF721
:104EE00096FB00F017F821460122BDE87040FFF75D
:104EF000FFBA00BF43616C6962726174696F6E00D2
:104F0000636F6D706C65746564000000526F203DC6
:104F100020000000B0B518B348F2646E40F2706330
:104F20001F214CF6CD4CC0F6000EC2F2000300BFAC
:104F300084B204FB0CF2D20C02EB8205A0EB45001C
:104F400080B21EF800005D180A2CA1F1010405F8DA
:104F5000010C03D3022921461046E9D11819B0BD2E
:104F600048F26260C0F60000B0BD000070B540F2CB
:104F7000A406C2F200064FF6004006F13801C0F662
:104F800000003022FFF7B8FC0020FFF797F801205F
:104F90001421FFF7A1F8B06BFBF739FBFFF7BAFF5D
:104FA00040F22004C2F2000421460122FFF7A0FAD9
:104FB00048F25C65C0F60005284621460122FFF74D
:104FC00097FAF06BFBF723FBFFF7A4FF21460122C2
:104FD000FFF78EFA284621460122FFF789FA306C46
:104FE000FBF715FBFFF796FF21460122FFF780FA3A
:104FF000284621460122FFF77BFA706CFBF707FB7E
:10500000FFF788FF21460122FFF772FA2846214662
:105010000122FFF76DFA01201E21FFF75DF8B06C49
:10502000FBF7F5FAFFF776FF21460122FFF760FA5A
:10503000284621460122FFF75BFAF06CFBF7E7FAFE
:10504000FFF768FF21460122FFF752FA2846214662
:105050000122FFF74DFA306DFBF7D9FAFFF75AFF3F
:1050600021460122FFF744FA284621460122FFF794
:105070003FFA706DFBF7CBFAFFF74CFF2146012298
:10508000FFF736FA284621460122FFF731FA0120C0
:105090002821FFF721F8B06DFBF7B9FAFFF73AFFC7
:1050A00021460122FFF724FA284621460122FFF774
:1050B0001FFAF06DFBF7ABFAFFF72CFF2146012238
:1050C000FFF716FA284621460122FFF711FA306E43
:1050D000FBF79DFAFFF71EFF21460122FFF708FAB2
:1050E000284621460122FFF703FA706EFBF78FFA7C
:1050F000FFF710FF21460122FFF7FAF92846214663
:105100000122BDE87040FFF7F3B900002DE9F04F30
:105110008DB040F29060C2F2000004780FF650604B
:1051200001F0E6F8012C40F2480440F2000AC2F215
:105130000004C4F2C82A40F097800FF63C6001F0EA
:10514000D7F8D4E90001FBF7ADFA0021804600252D
:10515000FBF719FA04460028504641461CBF0020C0
:10516000CCF2C820FBF717F8002C444618BF84F097
:105170000044FBF74CFA810841F27B4B01FB0BF139
:10518000490C642201FB12062046FBF740FAB2B23A
:10519000CD214A43D20A02FB01F3DB0A03EB83036E
:1051A000A2EB430242F030020DF102038DF814200D
:1051B00003F111042E2200288DF815508DF81320CC
:1051C00000F0E8804CF6CD4242F2C50C40F2473E7A
:1051D00042F21079274600BF83B203FB02F5ED0CC3
:1051E00005EB8506A0EB460040F030000A2B07F8DF
:1051F000010CC0F0DB8005FB02F0C00C00EB80006E
:10520000A5EB400040F03000642B07F8020CC0F022
:10521000CF80980800FB0BF0400C00FB02F5ED0C72
:1052200005EB8505A0EB450040F03000B3F57A7F33
:1052300007F8030CC0F0BE80D80800FB0CF0000D8E
:1052400000FB01F5ED0A05EB8505A0EB450040F0FC
:10525000300007F8040D180900FB0EF04B454FEA2B
:10526000D040B9D2A7E000BF0FF6185001F040F8C7
:10527000D4E90001FBF716FA002181460025FBF76F
:1052800082F904460028504649461CBF0020CCF253
:10529000C820FAF780FF002C4C4618BF84F0004469
:1052A000FBF7B5F9810841F27B4B01FB0BF1490C8F
:1052B000642201FB12062046FBF7A9F9B2B2CD2108
:1052C0004A43D20A02FB01F3DB0A03EB8303A2EB9E
:1052D000430242F030020DF102038DF8142003F175
:1052E00011042E2200288DF815508DF8132057D068
:1052F0004CF6CD4242F2C50C40F2473E42F21078E5
:10530000274600BF83B203FB02F5ED0C05EB8506D3
:10531000A0EB460040F030000A2B07F8010CC0F06B
:10532000958005FB02F0C00C00EB8000A5EB40006F
:1053300040F03000642B07F8020CC0F08980980818
:1053400000FB0BF0400C00FB02F5ED0C05EB8505B6
:10535000A0EB450040F03000B3F57A7F07F8030C6E
:10536000C0F07880D80800FB0CF0000D00FB01F5C0
:10537000ED0A05EB8505A0EB450040F0300007F88D
:10538000040D180900FB0EF043454FEAD040B9D296
:1053900061E000BF302003F110078DF812000AE031
:1053A000302003F110078DF8120054E0013F02E0B5
:1053B000023F00E0033F404600210025FBF7F1F8E3
:1053C000002804BF2D2007F8010D384600F090FF9B
:1053D00048F24160C0F6000000F08AFF0FF6EC6072
:1053E00000F086FF40F25006C2F20006B07943F2A8
:1053F0002E010DF102098DF81550ADF8131078B19A
:10540000C1B2CD235943CA0A02EB8201A0EB41018C
:105410000A2841F0300107D209F11000D3E000BFA3
:1054200009F110003021CEE05343DB0A43EA830345
:10543000A2EB430242F0300264288DF8112080F084
:10544000B9808DF8121009F10F00BEE0013F02E0B3
:10545000023F00E0033F484600214FF0000BFBF7FE
:10546000A0F8002804BF2D2007F8010D40F24805E0
:105470003846C2F2000500F03BFF48F24160C0F63A
:10548000000000F035FF0FF60C6000F031FFD5E9A9
:105490000001FBF707F900218046FBF774F8074687
:1054A0000028504641461CBF0020CCF2C820FAF725
:1054B00072FE002F474618BF87F00047FBF7A7F89A
:1054C000810841F27B4901FB09F1490C642201FB8F
:1054D00012053846FBF79BF8AAB2CD214A43D20AFF
:1054E00002FB01F3DB0A03EB8303A2EB430242F06E
:1054F00030028DF814202E2200288DF815B08DF87A
:1055000013204FD04CF6CD4242F2C50C40F2473E3C
:1055100042F2107B274600BF83B203FB02F5ED0C7D
:1055200005EB8506A0EB460040F030000A2B07F89B
:10553000010CC0F0858005FB02F0C00C00EB800080
:10554000A5EB400040F03000642B07F8020C79D343
:10555000980800FB09F0400C00FB02F5ED0C05EB90
:105560008505A0EB450040F03000B3F57A7F07F8E1
:10557000030C69D3D80800FB0CF0000D00FB01F50B
:10558000ED0A05EB8505A0EB450040F0300007F87B
:10559000040D180900FB0EF05B454FEAD040BBD26A
:1055A00053E000BF0DF1020000F1100730208DF82C
:1055B00012004AE029225043000B00F1300209F1A9
:1055C0000E008DF810208DF8121000F091FE48F2B8
:1055D0004160C0F6000000F08BFE0FF6FC4000F0CA
:1055E00087FE707900218DF8151043F22E01ADF879
:1055F000131078B1C1B2CD235943CA0A02EB82011C
:10560000A0EB41010A2841F0300107D209F1100056
:10561000D5E000BF09F110003021D0E05343DB0A90
:1056200043EA8303A2EB430242F0300264288DF880
:10563000112080F0BB808DF8121009F10F00C0E03E
:10564000013F02E0023F00E0033F404600214FF0EF
:10565000000BFAF7A6FF002804BF2D2007F8010D64
:1056600040F248053846C2F2000500F041FE48F21B
:105670004160C0F6000000F03BFE0FF6204000F055
:1056800037FED5E90001FBF70DF800218046FAF757
:105690007AFF07460028504641461CBF0020CCF246
:1056A000C820FAF778FD002F474618BF87F000475B
:1056B000FAF7ADFF810841F27B4901FB09F1490C82
:1056C000642201FB12053846FAF7A1FFAAB2CD21E8
:1056D0004A43D20A02FB01F3DB0A03EB8303A2EB8A
:1056E000430242F030028DF814202E2200288DF85B
:1056F00015B08DF8132051D04CF6CD4242F2C50CB6
:1057000040F2473E42F2107B274600BF83B203FBC4
:1057100002F5ED0C05EB8506A0EB460040F03000ED
:105720000A2B07F8010CC0F0318105FB02F0C00C18
:1057300000EB8000A5EB400040F03000642B07F840
:10574000020CC0F02581980800FB09F0400C00FB1A
:1057500002F5ED0C05EB8505A0EB450040F03000AF
:10576000B3F57A7F07F8030CC0F01481D80800FB6A
:105770000CF0000D00FB01F5ED0A05EB8505A0EB33
:10578000450040F0300007F8040D180900FB0EF04A
:105790005B454FEAD040B9D2FDE000BF0DF10200F9
:1057A00000F1100730208DF81200F4E02922504358
:1057B000000B00F1300209F10E008DF810208DF879
:1057C000121000F095FD48F24160C0F6000000F0B4
:1057D0008FFD0FF60C3000F08BFD307900218DF835
:1057E000151043F22E01ADF8131078B1C1B2CD23DC
:1057F0005943CA0A02EB8201A0EB41010A2841F099
:10580000300180F0AD8009F1100002E009F11000D4
:10581000302140F24805C2F200058DF8121000F068
:1058200067FD48F24160C0F6000000F061FD48F2FB
:105830004760C0F6000000F05BFDD5E90001FAF713
:1058400031FF002180460025FAF79DFE074600281B
:10585000504641461CBF0020CCF2C820FAF79BFC02
:10586000002F474618BF87F00047FAF7D0FE81089F
:1058700041F27B4B01FB0BF1490C642201FB120648
:105880003846FAF7C4FEB2B2CD214A43D20A02FB2F
:1058900001F3DB0A03EB8303A2EB430242F0300285
:1058A0008DF814202E2200288DF815508DF8132025
:1058B00050D04CF6CD4242F2C50C40F2473E42F287
:1058C0001079274683B203FB02F5ED0C05EB850644
:1058D000A0EB460040F030000A2B07F8010CC0F0A6
:1058E0000B8105FB02F0C00C00EB8000A5EB400033
:1058F00040F03000642B07F8020CC0F0FF809808DD
:1059000000FB0BF0400C00FB02F5ED0C05EB8505F0
:10591000A0EB450040F03000B3F57A7F07F8030CA8
:10592000C0F0EE80D80800FB0CF0000D00FB01F584
:10593000ED0A05EB8505A0EB450040F0300007F8C7
:10594000040D180900FB0EF04B454FEAD040B9D2C8
:10595000D7E000BF302009F110078DF81200D0E029
:105960005343DB0A43EA8303A2EB430240F24805B8
:1059700042F030026428C2F200058DF8112080F058
:1059800073818DF8121009F10F0048E7013F02E022
:10599000023F00E0033F404600214FF0000BFAF7C2
:1059A00000FE002804BF2D2007F8010D40F2480535
:1059B0003846C2F2000500F09BFC48F24160C0F698
:1059C000000000F095FC0FF6E00000F091FCD5E936
:1059D0000001FAF767FE00218046FAF7D4FD07467A
:1059E0000028504641461CBF0020CCF2C820FAF7E0
:1059F000D2FB002F474618BF87F00047FAF707FE93
:105A0000810841F27B4901FB09F1490C642201FB49
:105A100012053846FAF7FBFDAAB2CD214A43D20A55
:105A200002FB01F3DB0A03EB8303A2EB430242F028
:105A300030028DF814202E2200288DF815B08DF834
:105A4000132051D04CF6CD4242F2C50C40F2473EF5
:105A500042F2107B274600BF83B203FB02F5ED0C38
:105A600005EB8506A0EB460040F030000A2B07F856
:105A7000010CC0F0038105FB02F0C00C00EB8000BC
:105A8000A5EB400040F03000642B07F8020CC0F09A
:105A9000F780980800FB09F0400C00FB02F5ED0CC4
:105AA00005EB8505A0EB450040F03000B3F57A7FAB
:105AB00007F8030CC0F0E680D80800FB0CF0000DDE
:105AC00000FB01F5ED0A05EB8505A0EB450040F074
:105AD000300007F8040D180900FB0EF05B454FEA93
